:040000000128FE2FA6
:100F1800240016150800240096140800240016144E
:100F2800E83097000800240016081F39031D972F82
:100F3800141D0800972FF000700824009100141861
:100F4800A32F96121616080021008C140C152830B1
:100F58002400950016100A309200C0309400080052
:100F68009227F0010A30C0274C309F278F27F001C5
:100F7800F00A0A30C0270800F2007235F100710843
:100F8800F3007008F1007108F3077308240091005A
:100F98001418CC2F961216160800F1009727240073
:100FA8009615141CD52F1108F0007008F20071086E
:100FB8000319E02F9612E12F9616161672080800EC
:100FC8006A30210099008C0122008C0120008C01DC
:100FD800A8270D30F400FC30890BF02FF40BF02F0C
:100FE8000A30B4270030D127F40074082000A0008C
:080FF8008C27ED2F2000E42FEF
:020000040001F9
:04000E0024F9FFFFD3
:00000001FF
